:0A0000005EC0FECFFDCFFCCFFBCFAA
:10000A00FACFF9CFF8CFF7CFF6CFF5CFF4CFF3CFBA
:10001A00F2CFF1CFF0CFEFCFEECFEDCF000000005F
:10002A0000000000000000000000000000000000C6
:10003A0000000000000000000000000000000000B6
:10004A0000000000000000000000000000000000A6
:10005A000000000000000000000000004E6F204475
:10006A00657465637420200056657273696F6E202B
:10007A00322E300056657273696F6E20312E300051
:10008A004649464F20526561642E2E2E00526573F2
:10009A00657420436C65617200524649442D52438F
:1000AA0035323200524649442D544553542E2E2E91
:1000BA0000000000F894EE27ECBBF1E0FBBFEBBFB9
:1000CA00E5BFF8E1F1BDE1BD8DE0A2E0BB27ED930C
:1000DA008A95E9F780E094E0A0E6ED930197E9F7C5
:1000EA00ECEBF0E085919591009761F0A591B591BF
:1000FA0005901590BF01F00105900D920197E1F767
:10010A00FB01F0CFEFE5EDBFE4E0EEBFC0E6D1E0E2
:10011A008CC0E1E5EDB90895E881EFB9779BFECF90
:10012A00EFB141C0CAD0CED0E881CCD0C29A7BC050
:10013A000A93C3D0E068C6D0E0E0C4D00E2FC29ABA
:10014A00E02F088170C0C0D0EFE0C1D008950A93B3
:10015A00FADFEAE2EA93EDE8BAD0EBE2EA93EEE3F9
:10016A00B6D0ECE2EA93EEE1B2D0EDE2B2D0AFD093
:10017A00E5E1EA93E0E4ABD0E1E1EA93EDE3A7D06D
:10018A00E4E1EA93D5DF0E2FE02FE37029F4E4E1EE
:10019A00EA93E02FE3609BD009910895AA989CD036
:1001AA0002C0AA9A99D021960895EB81E295E07F40
:1001BA00EE0FEE0FAA81EA0FE0689CD0A881B98100
:1001CA00EC91E03041F0EA93ECDFE881F981319675
:1001DA00E883F983F3CF2496089576D0DFDF8CD0B5
:1001EA000895E881F981309769F48BD085D089D058
:1001FA0083D087D081D0EEE07DD07ED0E6E07AD081
:10020A007BD0EBDFA881B981119769F47AD074D0D9
:10021A0078D072D076D070D0EEE06CD06DD0E6E0B7
:10022A0069D06AD0DADF22960895EF97EF97679739
:10023A0085E9A0E0B0E0E6E2F0E07BD000E0E8EE9D
:10024A00F3E061D06AD0EFEFE1BBE4BBEFEEE7BBCE
:10025A00E0E0F0E058D0C5DF5CDF79DFE4E6F0E00B
:10026A0052D05BD0E7E3EA9363DF0E2FE8ECF0E0CD
:10027A004AD053D0023949F4E0E02BD047D0E0E02D
:10028A00EA93FE01E65AFF4F13C0013949F4E0E050
:10029A0020D03CD0E0E0EA93FE01E25BFF4F08C0C9
:1002AA00E0E017D033D0E0E0EA93FE01EE5BFF4FC7
:1002BA00FA93EA937ADFDECFFFCFC298E981EE0F95
:1002CA00EE770895EA9328CFE1E0EA930895EA9356
:1002DA0029CFEA93E0E00895A998A89A88EC90E0DB
:1002EA000197F1F7E881E2BB88EC90E00197F1F71A
:1002FA00A8980895EA9352CFE2E0F0E0FA93EA93DD
:10030A000CC0E8E3F7CFFA93EA930895EA93FE0163
:10031A00E657FF4FF8DF49DFD7CFE991F9913096D9
:10032A0039F080EA9FE00197F1F7A8953197C9F76C
:10033A000895AC0FBD1F05900D928A95E1F70895B7
:00000001FF
