:0C0000005FC0FECFFDCFFCCFFBCFFACFDE
:10000C00F9CFF8CFF7CFF6CFF5CFF4CFF3CFF2CFC0
:10001C00F1CFF0CFEFCFEECFEDCF0000000000001E
:10002C0000000000000000000000000000000000C4
:10003C0000000000000000000000000000000000B4
:10004C0000000000000000000000000000000000A4
:10005C00000000000000000000004E6F204465749A
:10006C0065637420200056657273696F6E20322EA2
:10007C00300056657273696F6E20312E3000464920
:10008C00464F20526561642E2E2E005265736574A6
:10009C0020436C656172002A524649442D52433507
:1000AC0032322A00524649442D544553542E2E2E9A
:1000BC0000000000F894EE27ECBBF1E0FBBFEBBFB7
:1000CC00E5BFF8E1F1BDE1BD8DE0A2E0BB27ED930A
:1000DC008A95E9F780E094E0A0E6ED930197E9F7C3
:1000EC00EEEBF0E085919591009761F0A591B591BB
:1000FC0005901590BF01F00105900D920197E1F765
:10010C00FB01F0CFEFE5EDBFE4E0EEBFC0E6D1E0E0
:10011C008CC0E1E5EDB90895E881EFB9779BFECF8E
:10012C00EFB141C0C2D0C6D0E881C4D0C29A7BC066
:10013C000A93BBD0E068BED0E0E0BCD00E2FC29AD0
:10014C00E02F088170C0B8D0EFE0B9D008950A93C1
:10015C00FADFEAE2EA93EDE8B2D0EBE2EA93EEE3FF
:10016C00AED0ECE2EA93EEE1AAD0EDE2AAD0A7D0B1
:10017C00E5E1EA93E0E4A3D0E1E1EA93EDE39FD07B
:10018C00E4E1EA93D5DF0E2FE02FE37029F4E4E1EC
:10019C00EA93E02FE36093D009910895AA9894D044
:1001AC0002C0AA9A91D021960895EB81E295E07F46
:1001BC00EE0FEE0FAA81EA0FE06894D0A881B98106
:1001CC00EC91E03041F0EA93ECDFE881F981319673
:1001DC00E883F983F3CF249608956ED0DFDF84D0C3
:1001EC000895E881F981309769F483D07DD081D06E
:1001FC007BD07FD079D0EEE075D076D0E6E072D0AF
:10020C0073D0EBDFA881B981119769F472D06CD0EF
:10021C0070D06AD06ED068D0EEE064D065D0E6E0E5
:10022C0061D062D0DADF22960895EF97EF97699745
:10023C0087E9A0E0B0E0E6E2F0E073D000E0E8EEA1
:10024C00F3E059D062D0EFEFE1BBE4BBEFEEE7BBDC
:10025C00E0E0F0E050D0C5DF5CDF79DFE7E3EA9364
:10026C0067DF0E2F023949F4E0E02BD047D0E0E0F5
:10027C00EA93FE01E65AFF4F13C0013949F4E0E05E
:10028C0020D03CD0E0E0EA93FE01E25BFF4F08C0D7
:10029C00E0E017D033D0E0E0EA93FE01EE5BFF4FD5
:1002AC00FA93EA9382DFDACFFFCFC298E981EE0F9F
:1002BC00EE770895EA9330CFE1E0EA930895EA935C
:1002CC0031CFEA93E0E00895A998A89A88EC90E0E1
:1002DC000197F1F7E881E2BB88EC90E00197F1F728
:1002EC00A8980895EA935ACFE2E0F0E0FA93EA93E3
:1002FC000CC0E8E3F7CFFA93EA930895EA93FE0172
:10030C00E457FF4FF8DF51DFD7CFE991F9913096E1
:10031C0039F080EA9FE00197F1F7A8953197C9F77A
:10032C000895AC0FBD1F05900D928A95E1F70895C5
:00000001FF
